:020000040800F2
:1000000058070020310200083D1E000801070008C3
:10001000391E000805050008F7230008000000004D
:10002000000000000000000000000000192000088F
:100030000905000800000000CD1E0008312100085D
:100040004B0200084B0200084B0200084B0200085C
:100050004B0200084B0200084B0200084B0200084C
:100060004B0200084B0200084B0200084B0200083C
:100070004B0200084B0200084B0200084B0200082C
:100080004B0200084B0200084B0200084B0200081C
:100090004B0200084B0200084B0200084B0200080C
:1000A0004B0200084B0200084B0200084B020008FC
:1000B0004B0200084B0200084B0200084B020008EC
:1000C0004B0200084B0200084B0200084B020008DC
:1000D0004B0200084B020008D92100084B0200081F
:1000E0004B0200084B0200084B0200084B020008BC
:1000F0004B0200084B0200084B0200084B020008AC
:100100004B0200084B0200084B0200084B0200089B
:100110004B0200084B0200084B0200084B0200088B
:100120004B0200084B0200084B0200084B0200087B
:100130004B0200084B0200084B0200084B0200086B
:100140004B0200084B0200084B0200084B0200085B
:100150004B0200084B0200084B0200084B0200084B
:100160004B0200084B0200084B0200084B0200083B
:100170004B0200084B0200084B0200084B0200082B
:100180004B0200084B02000800F002F800F041F8B2
:100190000AA090E8000C82448344AAF10107DA45E2
:1001A00001D100F036F8AFF2090EBAE80F0013F0F3
:1001B000010F18BFFB1A43F0010318472C3C000045
:1001C0004C3C0000103A24BF78C878C1FAD85207D6
:1001D00024BF30C830C144BF04680C6070470000C1
:1001E0000023002400250026103A28BF78C1FBD840
:1001F000520728BF30C148BF0B607047782900F014
:100200007980002070471FB502F0F4F91FBD10B5CA
:1002100010BD00F045F91146FFF7F5FF02F0BCF9FB
:1002200000F063F903B4FFF7F2FF03BC02F03CF9FE
:100230000948804709480047FEE7FEE7FEE7FEE77A
:10024000FEE7FEE7FEE7FEE7FEE7FEE704480549B6
:10025000054A064B70470000352100088901000857
:1002600058010020580700205803002058030020A0
:10027000704700000FB4044910B503AA029800F0BB
:10028000E1F810BC5DF814FB180000202DE9F041E6
:100290000E460446002020622046E168884730B3BD
:1002A000252805D0D4E901219047206A401CF2E7B7
:1002B000E168204600278847050018D0A5F14100D5
:1002C000192802D820354FF40067324629462046C7
:1002D0002760FFF793FF40B1012804D0F61D26F0F8
:1002E00007060836D8E7361DD6E72846DAE7206A3B
:1002F000BDE8F08170B504460D4621461068AFF3A5
:1003000000802188090502D50F4A7A4402E00E4A8E
:100310007A440E32002104F1240305E000F00F06B8
:100320000009965D5E54491C0028F7D1207800230F
:10033000000704D5702D02D009B1022311322046E6
:10034000BDE8704000F025B8B03A000010B5431C7D
:1003500002E010F8011B71B18107FAD14FF00132B0
:1003600002C88C1A8C4314EAC211F9D0C01A0A06CA
:1003700003D0C01E10BDC01A10BD0A0401D0801EDB
:1003800010BD0902FCD0401E10BD70477047704779
:1003900070472DE9F0470D4699469246044600F114
:1003A00024080168880604D5E06921F01001216065
:1003B00000E00120A84201DD471B00E00027A16901
:1003C0007A1902EB0900081AA0612078C00602D44D
:1003D0002046AFF30080002608E0D4E901211AF896
:1003E00006009047206A401C761C20624E45F4DBD4
:1003F0002078C0060AD52046AFF3008006E0D4E995
:10040000012130209047206A401C2062381EA7F14D
:100410000107F4DC07E0D4E9012118F80500904752
:10042000206A401C2062281EA5F10105F3DC20464D
:10043000AFF300802078000602D50220BDE8F087E7
:100440000120FBE7074B70B50D467B4400F011F827
:100450000446284600F020F810B14FF0FF3070BD80
:10046000204670BD2F21000001694A1C02610878F6
:10047000704700B58FB0CDE90131002105910549E4
:100480007944CDE9031011466846FFF7FFFE0FB02F
:1004900000BD0000E5FFFFFF007B00F0800070471B
:1004A000754600F02BF8AE4605006946534620F02D
:1004B0000700854618B020B5FFF7C8FEBDE820400C
:1004C0004FF000064FF000074FF000084FF0000B10
:1004D00021F00701AC46ACE8C009ACE8C009ACE8C3
:1004E000C009ACE8C0098D46704710B50446AFF3AB
:1004F00000802046BDE81040FFF794BE00487047DA
:10050000F800002000BFFEE77047000051B18200F4
:10051000A2F1C042126842F001038200A2F1C0427F
:10052000136009E08200A2F1C0421268034B1A4036
:100530008300A3F1C0431A6070470000FEFF0F0064
:10054000D0E901121143C2681143026911434269A3
:10055000114382691143C2691143026A1143426A1D
:100560001143826A1143C26A1143026B114302684C
:100570009200A2F1C0421160816808290BD1016884
:100580008900A1F1C041096841F040020168890079
:10059000A1F1C0410A60416B0968426B526841EAAF
:1005A0000211426B926841EA0221426B928941EA50
:1005B0000241426B128A41EA0251426B127D41EACA
:1005C0000261426B926911430268521C9200A2F1CF
:1005D000C0421160C16AB1F5804F1BD1816B0968BF
:1005E000826B526841EA0211826B926841EA0221F1
:1005F000826B128A41EA0251826B127D41EA0261EA
:10060000826B9269114302689200A2F1C042C2F863
:10061000041107E06FF0704201688900A1F1C04148
:10062000C1F804217047F0B50A46002100230024D8
:1006300000BF3DE0012505FA01F3156805EA030452
:100640009C4234D105684F000326BE40B543056087
:1006500015794E00B5400668354305601579012DC2
:1006600002D01579022D16D185684F000326BE40B1
:10067000B543856055794E00B54086683543856041
:10068000456801268E40B5434560456896798E40A1
:10069000B6B235434560C5684F000326BE40B5433A
:1006A000C560D5794E00B540C6683543C560491C64
:1006B0001029BFD3F0BDF0B5002300244D07ED0E87
:1006C00002FA05F3CE1000F1200555F826504E072A
:1006D000F70E0F26BE40B543CF1000F1200646F8B6
:1006E0002750CE1000F1200555F8265045EA0304A6
:1006F000CE1000F1200545F82640F0BD018370477B
:1007000000BFFEE72DE9FC4106460D46144628468B
:10071000FFF71CFE00F0FF0808FB04F000EBD071AF
:100720004F10BAB20649CDE900450988C91BC1F38B
:100730004F002346314601F0FFFABDE8FC8100007E
:10074000E800002070B5044600250A4800880949E1
:10075000498800FB01F60021084601F0DBF901F0B1
:1007600037FB00BF02E0044804806D1CB542FAD399
:1007700070BD0000E80000208000006C10B5044649
:1007800084B90020164988714FF4F07008804FF446
:10079000487048800846438802880021084601F0D6
:1007A000DFF90FE001200E4988714FF4487008808E
:1007B0004FF4F070488008464388028800210846BC
:1007C00001F0CEF94FF43050054908814FF428501C
:1007D00048814FF42C508881002001F033F910BD7E
:1007E000E800002030B504460D461449488901F060
:1007F000D7FA201201F0E0FA10494989491C88B261
:1008000001F0CEFAE0B201F0D7FA0C49888901F084
:10081000C7FA281201F0D0FA08498989491C88B220
:1008200001F0BEFAE8B201F0C7FA044800890449B1
:1008300008804FF0D840A0F8802030BDE8000020AC
:100840007E00006C00B59FB00121084601F050FB0E
:100850000121022001F03CFB0121082001F038FBBE
:100860000121102001F034FB0121202001F030FB98
:100870000121402001F02CFB4FF400401D9001208D
:100880008DF8780000208DF87A0002208DF879002C
:1008900001208DF87B001DA9FE48FFF7C4FE022051
:1008A0008DF8780003208DF879004FF480501D906A
:1008B0001DA9F948FFF7B7FE4FF480401D901DA910
:1008C000F648FFF7B0FE4FF400401D901DA9F34815
:1008D000FFF7A9FE01201D901DA9F048FFF7A3FE18
:1008E00002201D901DA9ED48FFF79DFE80201D9060
:1008F0001DA9EB48FFF797FE4FF480701D901DA9CE
:10090000E748FFF790FE4FF400701D901DA9E448E2
:10091000FFF789FE4FF480601D901DA9E048FFF7A6
:1009200082FE4FF400601D901DA9DD48FFF77BFE9D
:100930004FF480501D901DA9D948FFF774FE4FF465
:1009400000501D901DA9D648FFF76DFE4FF4804062
:100950001D901DA9D248FFF766FE4FF400401D9080
:100960001DA9CF48FFF75FFE4FF480701D901DA9B1
:10097000CA48FFF758FE4FF400701D901DA9C748E4
:10098000FFF751FE4FF480601D901DA9C348FFF78B
:100990004AFE4FF480501D901DA9C248FFF743FE48
:1009A00010201D901DA9BD48FFF73DFE20201D9081
:1009B0001DA9BA48FFF737FE0C220021B748FFF700
:1009C0007AFE0C220121B548FFF775FE0C220421A6
:1009D000B248FFF770FE0C220521B048FFF76BFE0E
:1009E0000C220821AD48FFF766FE0C220921AB4816
:1009F000FFF761FE0C220A21A848FFF75CFE0C22DB
:100A00000E21A648FFF757FE0C220F21A348FFF73F
:100A100052FE0C220721A248FFF74DFE0C220821AE
:100A20009F48FFF748FE0C2209219D48FFF743FE2F
:100A30000C220A219A48FFF73EFE0C220B2198480F
:100A4000FFF739FE0C2211469548FFF734FE0C22C1
:100A50000D219348FFF72FFE0C220E219048FFF73F
:100A60002AFE0C220F218E48FFF725FE0C2211468C
:100A70008948FFF720FE0C2211468A48FFF71BFE2B
:100A800010200790002008900A900B900C900D9079
:100A9000032000900020019003200290002003908A
:100AA00004900590069006200E9000200F90109064
:100AB0001020119000201290149013901590169011
:100AC0004FF480501790002018904FF480401990F8
:100AD00000201A9007A81B90CDF870D00EA8FFF741
:100AE0002FFD01210620FFF711FD642001F0DEFC3F
:100AF00045F210506C498880084681886BA0FFF74A
:100B0000B9FB642001F0D2FC55214FF4704001F094
:100B100069F9AA214FF2010001F064F952214FF264
:100B2000020001F05FF908214FF2030001F05AF9C9
:100B300001214FF2040001F055F90D214FF430402E
:100B400001F050F90D214BF2010001F04BF90D219C
:100B50004BF2020001F046F934214FF4364001F027
:100B600041F934214BF2016001F03CF934214BF2A0
:100B7000026001F037F90D214FF4314001F032F9F4
:100B80000D214BF2011001F02DF90D214BF2021055
:100B900001F028F934214FF4374001F023F93421D2
:100BA0004BF2017001F01EF934214BF2027001F09A
:100BB00019F900214FF4324001F014F900214BF2F1
:100BC000012001F00FF900214BF2022001F00AF997
:100BD00024214FF4384001F005F924214BF601009F
:100BE00001F000F924214BF6020001F0FBF801218D
:100BF0004FF43F4001F0F6F80F214FF4334001F07D
:100C0000F1F80F214BF2013001F0ECF80F214BF21B
:100C1000023001F0E7F834214FF4394001F0E2F8F6
:100C200034214BF6011001F0DDF834214BF60210AF
:100C300001F0D8F808214FF4354001F0D3F808212D
:100C40004BF2015001F0CEF808214BF2025001F0B6
:100C5000C9F803214FF4424001F0C4F824214FF4B5
:100C60003A4001F0BFF824214BF6012001F0BAF818
:100C700024214BF6022001F0B5F800214FF43C404E
:100C800001F0B0F878214BF6014001F0ABF80021FB
:100C900012E000000004024000140240000C024078
:100CA0000010024000180240E80000204C4344209D
:100CB00049443A25780D0A004BF6024001F092F8BB
:100CC00000214FF43D4001F08DF878214BF60150A2
:100CD00001F088F800214BF6025001F083F8002162
:100CE0004FF43E4001F07EF864214BF6016001F0C4
:100CF00079F800214FF4514001F074F833214DF29E
:100D0000011001F06FF800214DF2021001F06AF8B5
:100D100034214DF2031001F065F800214DF204106A
:100D200001F060F83A214DF2051001F05BF8002166
:100D30004DF2061001F056F84A214DF2071001F06D
:100D400051F800214DF2081001F04CF85C214DF2F1
:100D5000091001F047F800214DF20A1001F042F8A5
:100D600081214DF20B1001F03DF800214DF20C10E5
:100D700001F038F8A6214DF20D1001F033F80021F2
:100D80004DF20E1001F02EF8E5214DF20F1001F09A
:100D900029F801214DF2101001F024F813214DF231
:100DA000111001F01FF801214DF2121001F01AF894
:100DB00054214DF2131001F015F801214DF21410D9
:100DC00001F010F882214DF2151001F00BF801210D
:100DD0004DF2161001F006F8CA214DF2171001F07D
:100DE00001F802214DF2181000F0FCFF00214DF235
:100DF000191000F0F7FF02214DF21A1000F0F2FF77
:100E000001214DF21B1000F0EDFF02214DF21C10EC
:100E100000F0E8FF34214DF21D1000F0E3FF022145
:100E20004DF21E1000F0DEFF67214DF21F1000F0A2
:100E3000D9FF02214DF2201000F0D4FF84214DF2A1
:100E4000211000F0CFFF02214DF2221000F0CAFF66
:100E5000A4214DF2231000F0C5FF02214DF2241011
:100E600000F0C0FFB7214DF2251000F0BBFF0221BA
:100E70004DF2261000F0B6FFCF214DF2271000F002
:100E8000B1FF02214DF2281000F0ACFFDE214DF23F
:100E9000291000F0A7FF02214DF22A1000F0A2FF56
:100EA000F2214DF22B1000F09DFF02214DF22C108B
:100EB00000F098FFFE214DF22D1000F093FF03216A
:100EC0004DF22E1000F08EFF10214DF22F1000F089
:100ED00089FF03214DF2301000F084FF33214DF2E1
:100EE000311000F07FFF03214DF2321000F07AFF45
:100EF0006D214DF2331000F075FF00214FF4524088
:100F000000F070FF33214DF2012000F06BFF002153
:100F10004DF2022000F066FF34214DF2032000F074
:100F200061FF00214DF2042000F05CFF3A214DF2F8
:100F3000052000F057FF00214DF2062000F052FF7F
:100F40004A214DF2072000F04DFF00214DF208200C
:100F500000F048FF5C214DF2092000F043FF002122
:100F60004DF20A2000F03EFF81214DF20B2000F0EF
:100F700039FF00214DF20C2000F034FFA6214DF284
:100F80000D2000F02FFF00214DF20E2000F02AFF6F
:100F9000E5214DF20F2000F025FF01214DF2102038
:100FA00000F020FF13214DF2112000F01BFF012162
:100FB0004DF2122000F016FF54214DF2132000F0E4
:100FC00011FF01214DF2142000F00CFF82214DF29F
:100FD000152000F007FF01214DF2162000F002FF5E
:100FE000CA214DF2172000F0FDFE02214DF218201B
:100FF00000F0F8FE00214DF2192000F0F3FE02216E
:101000004DF21A2000F0EEFE01214DF21B2000F0FF
:10101000E9FE02214DF21C2000F0E4FE34214DF2E5
:101020001D2000F0DFFE02214DF21E2000F0DAFE4E
:1010300067214DF21F2000F0D5FE02214DF2202045
:1010400000F0D0FE84214DF2212000F0CBFE0221E1
:101050004DF2222000F0C6FEA4214DF2232000F024
:10106000C1FE02214DF2242000F0BCFEB7214DF25A
:10107000252000F0B7FE02214DF2262000F0B2FE3E
:10108000CF214DF2272000F0ADFE02214DF22820A5
:1010900000F0A8FEDE214DF2292000F0A3FE02217F
:1010A0004DF22A2000F09EFEF2214DF22B2000F09E
:1010B00099FE02214DF22C2000F094FEFE214DF20B
:1010C0002D2000F08FFE03214DF22E2000F08AFE2D
:1010D00010214DF22F2000F085FE03214DF230202B
:1010E00000F080FE33214DF2312000F07BFE032121
:1010F0004DF2322000F076FE6D214DF2332000F0EB
:1011000071FE00214FF4534000F06CFE33214DF28C
:10111000013000F067FE00214DF2023000F062FE67
:1011200034214DF2033000F05DFE00214DF2043019
:1011300000F058FE3A214DF2053000F053FE002138
:101140004DF2063000F04EFE4A214DF2073000F01D
:1011500049FE00214DF2083000F044FE5C214DF2C2
:10116000093000F03FFE00214DF20A3000F03AFE57
:1011700081214DF20B3000F035FE00214DF20C3094
:1011800000F030FEA6214DF20D3000F02BFE0021C4
:101190004DF20E3000F026FEE5214DF20F3000F04A
:1011A00021FE01214DF2103000F01CFE13214DF202
:1011B000113000F017FE01214DF2123000F012FE46
:1011C00054214DF2133000F00DFE01214DF2143088
:1011D00000F008FE82214DF2153000F003FE0121DF
:1011E0004DF2163000F0FEFDCA214DF2173000F02E
:1011F000F9FD02214DF2183000F0F4FD00214DF20E
:10120000193000F0EFFD02214DF21A3000F0EAFD36
:1012100001214DF21B3000F0E5FD02214DF21C30A2
:1012200000F0E0FD34214DF21D3000F0DBFD022125
:101230004DF21E3000F0D6FD67214DF21F3000F058
:10124000D1FD02214DF2203000F0CCFD84214DF281
:10125000213000F0C7FD02214DF2223000F0C2FD26
:10126000A4214DF2233000F0BDFD02214DF22430C7
:1012700000F0B8FDB7214DF2253000F0B3FD02219A
:101280004DF2263000F0AEFDCF214DF2273000F0B8
:10129000A9FD02214DF2283000F0A4FDDE214DF21F
:1012A000293000F09FFD02214DF22A3000F09AFD16
:1012B000F2214DF22B3000F095FD02214DF22C3041
:1012C00000F090FDFE214DF22D3000F08BFD03214A
:1012D0004DF22E3000F086FD10214DF22F3000F03F
:1012E00081FD03214DF2303000F07CFD33214DF2C1
:1012F000313000F077FD03214DF2323000F072FD05
:101300006D214DF2333000F06DFD00214FF454405B
:1013100000F068FD33214DF2014000F063FD002133
:101320004DF2024000F05EFD34214DF2034000F02A
:1013300059FD00214DF2044000F054FD3A214DF2D8
:10134000054000F04FFD00214DF2064000F04AFD3F
:101350004A214DF2074000F045FD00214DF20840C2
:1013600000F040FD5C214DF2094000F03BFD002102
:101370004DF20A4000F036FD81214DF20B4000F0A5
:1013800031FD00214DF20C4000F02CFDA6214DF264
:101390000D4000F027FD00214DF20E4000F022FD2F
:1013A000E5214DF20F4000F01DFD01214DF21040EE
:1013B00000F018FD13214DF2114000F013FD012142
:1013C0004DF2124000F00EFD54214DF2134000F09A
:1013D00009FD01214DF2144000F004FD82214DF27F
:1013E000154000F0FFFC01214DF2164000F0FAFC20
:1013F000CA214DF2174000F0F5FC02214DF21840D1
:1014000000F0F0FC00214DF2194000F0EBFC02214D
:101410004DF21A4000F0E6FC01214DF21B4000F0B5
:10142000E1FC02214DF21C4000F0DCFC34214DF2C5
:101430001D4000F0D7FC02214DF21E4000F0D2FC0E
:1014400067214DF21F4000F0CDFC02214DF22040FB
:1014500000F0C8FC84214DF2214000F0C3FC0221C1
:101460004DF2224000F0BEFCA4214DF2234000F0DA
:10147000B9FC02214DF2244000F0B4FCB7214DF23A
:10148000254000F0AFFC02214DF2264000F0AAFCFE
:10149000CF214DF2274000F0A5FC02214DF228405B
:1014A00000F0A0FCDE214DF2294000F09BFC02215F
:1014B0004DF22A4000F096FCF2214DF22B4000F054
:1014C00091FC02214DF22C4000F08CFCFE214DF2EB
:1014D0002D4000F087FC03214DF22E4000F082FCED
:1014E00010214DF22F4000F07DFC03214DF23040E1
:1014F00000F078FC33214DF2314000F073FC032101
:101500004DF2324000F06EFC6D214DF2334000F0A0
:1015100069FC00214FF4554000F064FC33214DF28A
:10152000015000F05FFC00214DF2025000F05AFC27
:1015300034214DF2035000F055FC00214DF20450CF
:1015400000F050FC3A214DF2055000F04BFC002118
:101550004DF2065000F046FC4A214DF2075000F0D3
:1015600041FC00214DF2085000F03CFC5C214DF2A2
:10157000095000F037FC00214DF20A5000F032FC17
:1015800081214DF20B5000F02DFC00214DF20C504A
:1015900000F028FCA6214DF20D5000F023FC0021A4
:1015A0004DF20E5000F01EFCE5214DF20F5000F000
:1015B00019FC01214DF2105000F014FC13214DF2E2
:1015C000115000F00FFC01214DF2125000F00AFC06
:1015D00054214DF2135000F005FC01214DF214503E
:1015E00000F000FC82214DF2155000F0FBFB0121C0
:1015F0004DF2165000F0F6FBCA214DF2175000F0E4
:10160000F1FB02214DF2185000F0ECFB00214DF2ED
:10161000195000F0E7FB02214DF21A5000F0E2FBF6
:1016200001214DF21B5000F0DDFB02214DF21C5058
:1016300000F0D8FB34214DF21D5000F0D3FB022105
:101640004DF21E5000F0CEFB67214DF21F5000F00E
:10165000C9FB02214DF2205000F0C4FB84214DF261
:10166000215000F0BFFB02214DF2225000F0BAFBE6
:10167000A4214DF2235000F0B5FB02214DF224507D
:1016800000F0B0FBB7214DF2255000F0ABFB02217A
:101690004DF2265000F0A6FBCF214DF2275000F06E
:1016A000A1FB02214DF2285000F09CFBDE214DF2FF
:1016B000295000F097FB02214DF22A5000F092FBD6
:1016C000F2214DF22B5000F08DFB02214DF22C50F7
:1016D00000F088FBFE214DF22D5000F083FB03212A
:1016E0004DF22E5000F07EFB10214DF22F5000F0F5
:1016F00079FB03214DF2305000F074FB33214DF2A1
:10170000315000F06FFB03214DF2325000F06AFBC4
:101710006D214DF2335000F065FB00214FF456402F
:1017200000F060FB33214DF2016000F05BFB002113
:101730004DF2026000F056FB34214DF2036000F0E0
:1017400051FB00214DF2046000F04CFB3A214DF2B8
:10175000056000F047FB00214DF2066000F042FBFF
:101760004A214DF2076000F03DFB00214DF2086078
:1017700000F038FB5C214DF2096000F033FB0021E2
:101780004DF20A6000F02EFB81214DF20B6000F05B
:1017900029FB00214DF20C6000F024FBA6214DF244
:1017A0000D6000F01FFB00214DF20E6000F01AFBEF
:1017B000E5214DF20F6000F015FB01214DF21060A4
:1017C00000F010FB13214DF2116000F00BFB012122
:1017D0004DF2126000F006FB54214DF2136000F050
:1017E00001FB01214DF2146000F0FCFA82214DF260
:1017F000156000F0F7FA01214DF2166000F0F2FAE0
:10180000CA214DF2176000F0EDFA02214DF2186086
:1018100000F0E8FA00214DF2196000F0E3FA02212D
:101820004DF21A6000F0DEFA01214DF21B6000F06B
:10183000D9FA02214DF21C6000F0D4FA34214DF2A5
:101840001D6000F0CFFA02214DF21E6000F0CAFACE
:1018500067214DF21F6000F0C5FA02214DF22060B1
:1018600000F0C0FA84214DF2216000F0BBFA0221A1
:101870004DF2226000F0B6FAA4214DF2236000F090
:10188000B1FA02214DF2246000F0ACFAB7214DF21A
:10189000256000F0A7FA02214DF2266000F0A2FABE
:1018A000CF214DF2276000F09DFA02214DF2286011
:1018B00000F098FADE214DF2296000F093FA02213F
:1018C0004DF22A6000F08EFAF2214DF22B6000F00A
:1018D00089FA02214DF22C6000F084FAFE214DF2CB
:1018E0002D6000F07FFA03214DF22E6000F07AFAAD
:1018F00010214DF22F6000F075FA03214DF2306097
:1019000000F070FA33214DF2316000F06BFA0321E0
:101910004DF2326000F066FA6D214DF2336000F056
:1019200061FA55214FF4704000F05CFAAA214FF2A1
:10193000010000F057FA52214FF2020000F052FA73
:1019400008214FF2030000F04DFA00214FF204008D
:1019500000F048FACC214FF4314000F043FA002166
:101960004BF2011000F03EFA05214FF4364000F032
:1019700039FA70214FF4374000F034FA70214BF2FD
:10198000017000F02FFA01214FF4384000F02AFADC
:1019900003214BF6010000F025FA03214BF602006B
:1019A00000F020FA03214BF6030000F01BFA02219D
:1019B0004FF43C4000F016FA00214BF6014000F0D5
:1019C00011FA00214BF6024000F00CFAD0214FF43E
:1019D000494000F007FA02214CF6011000F002FA2B
:1019E00050214CF6021000F0FDF950214CF6031086
:1019F00000F0F8F950214CF6041000F0F3F9002142
:101A00004FF4545000F0EEF955214FF4685000F0B7
:101A1000E9F94FF4885000F0C3F9782000F062FD36
:101A20004FF4245000F0BCF90020FEF7A7FE01207F
:101A3000034908604FF6FF70FEF784FE1FB000BD3B
:101A4000BC82404270B504460023002630488079AD
:101A5000012818D1082C15D2DFE804F00406080A82
:101A60000C0E101206240DE007240BE0042409E0FC
:101A7000052407E0012405E0002403E0032401E03D
:101A8000022400BF00BF082C1CD2DFE804F00406CB
:101A9000090C0F12151800BF14E043F0800311E089
:101AA00043F040030EE043F0C0030BE043F020039B
:101AB00008E043F0600305E043F0A00302E043F0D8
:101AC000E00300BF00BF4FF458561946304600F0FF
:101AD00089F903F0200068B10D4800880C49498855
:101AE000884214DA0A48058840880949088008466F
:101AF00045800CE00648008805494988884206DD93
:101B0000034805884088024908800846458070BD22
:101B1000E800002010B502460C461049488900F044
:101B20003FF9101200F048F90C494989491C88B264
:101B300000F036F9D0B200F03FF90849888900F08A
:101B40002FF9201200F038F904498989491C88B21C
:101B500000F026F9E0B200F02FF910BDE8000020F7
:101B60002DE9F04104460D461E46A018401E87B2DE
:101B7000A819401E1FFA80F82349488900F010F97F
:101B8000201200F019F920494989491C88B200F057
:101B900007F9E0B200F010F91B494989891C88B2A5
:101BA00000F0FEF8381200F007F917494989C91CFE
:101BB00088B200F0F5F8F8B200F0FEF81249888912
:101BC00000F0EEF8281200F0F7F80F498989491C57
:101BD00088B200F0E5F8E8B200F0EEF80A49898929
:101BE000891C88B200F0DCF84FEA282000F0E4F805
:101BF00005498989C91C88B200F0D2F808F0FF00B5
:101C000000F0DAF8BDE8F081E80000202DE9F84F97
:101C100080460E4617461C46B3462046E31704EBA3
:101C20005373DB1021464FEAE47C04EB5C7C4FEA03
:101C3000EC0CA4EBCC0CBCF1000F02D04FF0010C6B
:101C400001E04FF0000C6344224604EBD27C4FEAE3
:101C50006C0C03FB0CF3DBB20093A7F12000C7B2BE
:101C6000002558E00C2C04D0102C0AD0182C16D1CA
:101C70000DE007EB47002A4901EB800010F80590C2
:101C80000FE0284800EB071010F8059009E007EB7B
:101C9000C700254901EB800010F8059001E0BDE880
:101CA000F88F00BF4FF0000A2FE009F0800030B13C
:101CB0001E48028831464046FEF794FD07E00A9828
:101CC00028B91B48028831464046FEF78BFD4FEA93
:101CD00049604FEA1069701C86B216484088B042CD
:101CE00000DCDCE7A6EB0B00A0420AD15E4608F15F
:101CF00001001FFA80F80F480088404500DCCEE75D
:101D000006E00AF1010000F0FF0ABAF1080FCCDB8F
:101D100000BF681CC5B200988542A3DB00BFBEE7C8
:101D2000FE250008722A0008623000081C0000200E
:101D30001E000020E80000202DE9F84704460D466B
:101D400090469946DDE9096704F0FF0A08EB0400B4
:101D50001FFA80F809EB05001FFA80F916E04445E8
:101D600002DB5446A81985B24D4500DB14E0002083
:101D700000903A78334629462046FFF747FF304621
:101D800006EBD07104EB61018CB27F1C38787E28A1
:101D900002DC38782028E2DA00BFBDE8F8870000CE
:101DA00001B5BDF800000090BDF8000001490880B1
:101DB00008BD00007E00006C01B5BDF80000009079
:101DC000BDF800000149088008BD00008000006CDB
:101DD000024800890249088070470000E80000209E
:101DE0007E00006C034A10804FF0D842A2F88010A9
:101DF000704700007E00006C1CB50121202000F01F
:101E000067F84FF4C060009001208DF804000020B6
:101E10008DF8060003208DF8050001208DF80700DD
:101E200069460448FEF7FFFB4FF4C0610148FEF726
:101E300065FC1CBD0014024000BFFEE770470000B7
:101E400070B5002100230F22C4781CB3174C2468FE
:101E500004F4E064C4F5E064C4F30721C1F10404B0
:101E6000E3B20A4144789C40E1B2847814402143B3
:101E70000C07210E0E4C05786155047804F01F05FF
:101E80000124AC4005786D11AD0005F1E025C5F8E1
:101E9000004109E0047804F01F050124AC40054D21
:101EA0000678761145F8264070BD00000CED00E084
:101EB00000E400E080E100E002490143024A1160D1
:101EC000704700000000FA050CED00E070470000CC
:101ED00029B1064A12680243044B1A6004E0034A1F
:101EE00012688243014B1A6070470000303802408C
:101EF00029B1064A12680243044B1A6004E0034AFF
:101F000012688243014B1A60704700003838024063
:101F100029B1064A12680243044B1A6004E0034ADE
:101F200012688243014B1A6070470000403802403B
:101F3000F0B5002100220024022500260223324FA2
:101F40003F6807F00C0121B1042905D0082937D1D9
:101F500005E02E4F076036E02D4F076033E02A4F33
:101F60003F1F3F68C7F38056274F3F1F3F6807F06A
:101F70003F036EB1264FB7FBF3F7DFF88CC0ACF12F
:101F8000040CDCF800C0CCF3881C07FB0CF40CE05C
:101F90001E4FB7FBF3F7DFF870C0ACF1040CDCF8B0
:101FA00000C0CCF3881C07FB0CF4174F3F1F3F68A1
:101FB000C7F301477F1C7D00B4FBF5F7076002E023
:101FC000124F076000BF00BF0F4F3F6807F0F001DE
:101FD0000909104F7A5C0768D74047600A4F3F688D
:101FE00007F4E051890A0B4F7A5C4768D740876055
:101FF000054F3F6807F46041490B064F7A5C47681C
:10200000D740C760F0BD0000083802400024F4004B
:1020100000127A0000000020704700000CB500207C
:10202000019000903448006840F4803032490860E4
:1020300000BF3148006800F4003000900198401C57
:102040000190009818B90198B0F5A04FF1D12A4835
:10205000006800F4003010B10120009001E0002081
:1020600000900098012846D123484030006840F095
:1020700080502149403108602048006840F44040C9
:102080001E4908601C48083000681B490831086078
:102090000846006840F4004008600846006840F4C4
:1020A000A05008601648091F0860081F006840F02B
:1020B0008070091F086000BF0F48006800F00070C2
:1020C0000028F9D040F205700E4908600A4808302F
:1020D000006820F0030008490831086008460068DD
:1020E00040F00200086000BF03480830006800F0BC
:1020F0000C000828F8D10CBD0038024000700040E8
:1021000008544007003C0240042808D14FF0E02169
:10211000096941F004014FF0E022116107E04FF03E
:10212000E021096921F004014FF0E02211617047BC
:102130007047000010B51548006840F4700013495E
:1021400008601348006840F0010011490860002051
:102150000F49083108600E4800680E4908400C49D4
:1021600008600D48091D0860081F006820F48020E1
:10217000091F0860002006490C310860FFF74EFF78
:102180004FF0006001498039086010BD88ED00E023
:1021900000380240FFFFF6FE1030002410B5044660
:1021A0006FF00400FFF7B0FFE11704EB5171C1F3CA
:1021B000C701074A11701046007800EB4001C1EBDF
:1021C000C0104FF6FF7101EAC0000249088010BD3F
:1021D000100000201200002010B540F225511D48CB
:1021E00000F04AF810B31B4800F000F9C4B21A48D6
:1021F000008800F40040C8B91748008800F4804007
:1022000060B10A2C03D000201349088020E0124856
:10221000008840F400401049088019E00D2C06D1D8
:102220000D48008840F480400B49088010E00A48BF
:102230000088C0F30D0009490C5407480088401C71
:102240000549088008460088C72801DD002008806D
:1022500010BD0000004400401400002020000020B9
:1022600021B1828942F40052828104E082894DF6D4
:10227000FF731A408281704770B502460024002324
:102280000025002040F66A16B14200D100BFC1F31C
:10229000421501F01F03012606FA03F3012D02D1B6
:1022A0009689334006E0022D02D1168A334001E0C0
:1022B000968A33400C12012606FA04F4168834403C
:1022C00013B10CB1012000E0002070BDF0B5034651
:1022D000002400260025002040F66A17B94200D1EC
:1022E00000BF1846C1F3421401F01F06012707FA88
:1022F00006F5012C01D10C3004E0022C01D1103084
:1023000000E014301AB107682F43076002E0076845
:10231000AF430760F0BD00002DE9FF4705460E46BC
:102320000024A14600BFA046B08900B100BF2C8A9E
:1023300024F44054F08804432C82AC8941F20C60B0
:102340008443B08831890843718908430443AC81D0
:10235000AC8A24F44074B0890443AC826846FFF729
:10236000E7FD2048854202D01F48854202D1DDF8B2
:102370000C9001E0DDF80890A88900F4004040B11D
:1023800009EBC90000EB091031684900B0FBF1F717
:1023900007E009EBC90000EB091031688900B0FBC8
:1023A000F1F76420B7FBF0F004012009642101FB80
:1023B0001078A88900F4004040B1322000EBC8003A
:1023C000B0FBF1F000F00700044308E0322000EB1E
:1023D00008106421B0FBF1F000F00F0004432C81E1
:1023E000BDE8FF87001001400014014001468888C5
:1023F000C0F30800704700BFFEE7000010B588B0CA
:10240000044601210846FFF763FD01214804FFF758
:102410007FFD0C20069002208DF81C008DF81D0019
:1024200000208DF81E0001208DF81F0006A91C4811
:10243000FEF7F9F8072202211948FEF73CF90722B6
:1024400003211748FEF737F902940020ADF80C007D
:10245000ADF80E00ADF81000ADF814000C20ADF88A
:10246000120002A90F48FFF757FF01210D48FFF79F
:10247000F7FE26208DF8040003208DF805008DF866
:10248000060001208DF8070001A8FFF7D9FC012202
:1024900040F225510348FFF719FF08B010BD0000B6
:1024A000000002400044004000BF704770B5044681
:1024B0004FF4077094FBF0F0C6B24FF4077094FB32
:1024C000F0F100FB114085B205E04FF4077000F019
:1024D0002FF8701EC6B2002EF7D115B1284600F0B5
:1024E00027F870BD0146114A12784A434FF0E023A5
:1024F0005A6100229A611A46126942F001021A6179
:1025000000BF4FF0E022106900F001021AB100F4A0
:102510008032002AF5D04FF0E022126922F0010249
:102520004FF0E0231A6100229A61704710000020EA
:102530000146114A12884A434FF0E0235A610022B3
:102540009A611A46126942F001021A6100BF4FF007
:10255000E022106900F001021AB100F48032002A72
:10256000F5D04FF0E022126922F001024FF0E02393
:102570001A6100229A6170471200002000BF054ACC
:10258000128802F04002002AF9D0C2B2014B1B1D92
:102590001A807047004400404FF4A060FFF78CFCA5
:1025A000A820FFF7FBFD4FF4E130FFF727FFFFF70F
:1025B00023FCFEF747F94FF47840064908804FF6B0
:1025C000FF7005490880182204A13220FEF79AF80E
:1025D00000BFFEE71C0000201E0000204C434420EA
:1025E000446973706C6179204578706572696D65B6
:1025F0006E7400004FF04070E1EE100A704700006A
:1026000000000000000000000000000000003F404B
:1026100000000000000000003000400030004000DA
:10262000000009000BC03D000BC03D00090018C0B0
:1026300024407FE0224031800000180024C01B00AD
:102640000D803240018003801C4027401C800740E1
:1026500000401000600000000000000000000000CA
:10266000000000001F80204040200000402020404B
:102670001F8000000000090006001F8006000900FE
:102680000000040004003F8004000400000000106B
:1026900000600000000000000000040004000400CE
:1026A00004000400000000000040000000000000E2
:1026B0000000002001C006003800400000001F801C
:1026C0002040204020401F800000000010403FC0FC
:1026D00000400000000018C0214022402440184063
:1026E000000010802040244024401B800000020095
:1026F0000D0011003FC0014000003C8024402440F8
:102700002440238000001F80244024403440038064
:1027100000003000200027C03800200000001B808F
:102720002440244024401B8000001C0022C0224082
:1027300022401F8000000000000008400000000050
:102740000000000000000460000000000000000025
:1027500004000A001100208040400900090009001F
:1027600009000900000000004040208011000A001C
:1027700004001800200023402400180000001F80DF
:102780002040274029401F400000004007C039007A
:102790000F0001C0004020403FC0244024401B8067
:1027A00000001F802040204020403080000020405A
:1027B0003FC0204020401F80000020403FC02440F8
:1027C0002E4030C0000020403FC024402E0030008A
:1027D00000000F0010802040224033800200204083
:1027E0003FC0040004003FC02040204020403FC0C4
:1027F0002040204000000060202020203FC020001A
:10280000200020403FC024400B0030C0204020402A
:102810003FC020400040004000C03FC03C0003C01B
:102820003C003FC0000020403FC00C4023003FC0A0
:1028300020001F802040204020401F8000002040BA
:102840003FC024402400180000001F802140214088
:1028500020E01FA0000020403FC02440260019C0F7
:10286000004018C024402440224031800000300045
:1028700020403FC020403000000020003F8000404A
:1028800000403F80200020003E0001C007003800CB
:102890002000380007C03C0007C03800000020407E
:1028A00039C0060039C0204000002000384007C071
:1028B000384020000000304021C02640384020C071
:1028C0000000000000007FE04020402000000000E9
:1028D00070000C00038000400000000040204020F9
:1028E0007FE0000000000000200040002000000009
:1028F0000000001000100010001000100010000078
:1029000000004000000000000000000002800540C0
:10291000054003C0004020003FC004400440038045
:102920000000000003800440044006400000000056
:102930000380044024403FC0004000000380054065
:10294000054003400000000004401FC02440244014
:102950002000000002E005500550065004202040F1
:102960003FC00440040003C000400000044027C0F2
:1029700000400000000000100010041027E00000DC
:10298000000020403FC00140070004C00440204038
:1029900020403FC000400040000007C0040007C0C6
:1029A000040003C00000044007C00440040003C04A
:1029B0000040000003800440044003800000041035
:1029C00007F004500440038000000000038004402E
:1029D000045007F00010044007C002400400040047
:1029E0000000000006400540054004C00000000053
:1029F00004001F80044000400000040007800040E5
:102A0000044007C000400400070004C00180060025
:102A10000400060001C0070001C0060000000440D9
:102A200006C0010006C0044000000410071004E0C6
:102A30000180060004000000044005C00640044078
:102A400000000000000004007BE0402000000000C7
:102A500000000000FFF000000000000040207BE0CC
:102A60000400000000004000800040002000200022
:102A70004000000000000000000000000000000016
:102A800000000000000000001FCC000C000000004F
:102A90000000000008003000600008003000600006
:102AA0000000022003FC1E20022003FC1E20022046
:102AB000000000000E1811043FFF10840C78000085
:102AC00000000F0010840F3800C0077818840078C9
:102AD000000000780F8410C411240E9800E40084D4
:102AE00000080800680070000000000000000000FE
:102AF000000000000000000007E018182004400259
:102B00000000000040022004181807E00000000048
:102B100000000240024001800FF0018002400240AC
:102B200000000080008000800FF80080008000809E
:102B300000000001000D000E000000000000000079
:102B40000000000000800080008000800080008085
:102B500000800000000C000C0000000000000000DD
:102B60000000000000060018006001800600180048
:102B70002000000007F0080810041004080807F0FF
:102B800000000000080408041FFC0004000400000A
:102B9000000000000E0C10141024104411840E0CC0
:102BA000000000000C1810041104110412880C70AD
:102BB0000000000000E00320042408241FFC00247F
:102BC000000000001F981084110411041088107078
:102BD0000000000007F00888110411041888007034
:102BE000000000001C00100010FC13001C0010006E
:102BF000000000000E3811441084108411440E3877
:102C0000000000000700088C10441044088807F0FA
:102C10000000000000000000030C030C0000000096
:102C2000000000000000000101060000000000009C
:102C30000000000000800140022004100808100479
:102C40000000022002200220022002200220022096
:102C50000000000010040808041002200140008059
:102C6000000000000E001200100C106C10800F000D
:102C7000000003E00C1813E4142417C4082807D03C
:102C800000000004003C03C41C40074000E4001C9A
:102C9000000410041FFC1104110411040E880070BC
:102CA000000003E00C1810041004100410081C109D
:102CB000000010041FFC100410041004080807F0A2
:102CC000000010041FFC1104110417C4100408189C
:102CD000000010041FFC1104110017C010000800B0
:102CE000000003E00C181004100410441C7800408D
:102CF000000010041FFC10840080008010841FFC62
:102D000010040000100410041FFC10041004000044
:102D1000000000030001100110011FFE1000100050
:102D2000000010041FFC110403801464181C10041C
:102D3000000010041FFC1004000400040004000C38
:102D4000000010041FFC1F0000FC1F001FFC1004EB
:102D5000000010041FFC0C04030000E010181FFC0E
:102D6000100007F00808100410041004080807F009
:102D7000000010041FFC10841080108010800F00D1
:102D8000000007F0081810241024101C080A07F28D
:102D9000000010041FFC1104110011C011300E0CB2
:102DA000000400000E1C11041084108410441C3810
:102DB00000001800100010041FFC10041000180080
:102DC000000010001FF810040004000410041FF895
:102DD000100010001E0011E0001C007013801C0089
:102DE00010001FC0103C00E01F0000E0103C1FC09E
:102DF00000001004180C163401C001C01634180C61
:102E0000100410001C00130400FC13041C0010002C
:102E100000000804101C1064108413041C04101813
:102E200000000000000000007FFE4002400240025F
:102E30000000000030000C0003800060001C000354
:102E4000000000004002400240027FFE000000003F
:102E50000000000000002000400040004000200072
:102E6000000000010001000100010001000100015B
:102E700000010000400040002000000000000000B1
:102E8000000000000098012401440144014400FCBA
:102E9000000410001FFC0088010401040088007079
:102EA0000000000000700088010401040104008893
:102EB00000000000007000880104010411081FFCDC
:102EC0000004000000F8014401440144014400C82A
:102ED00000000000010401040FFC110411041100A2
:102EE0001800000000D601290129012901C90106A5
:102EF000000010041FFC008401000100010400FC1C
:102F0000000400000104190419FC0004000400007E
:102F100000000000000300010101190119FE00007A
:102F2000000010041FFC0024004001B4010C010447
:102F300000000000100410041FFC00040004000046
:102F40000000010401FC0104010001FC0104010076
:102F500000FC010401FC008401000100010400FCEC
:102F60000004000000F8010401040104010400F859
:102F70000000010101FF00850104010400880070C8
:102F8000000000000070008801040104010501FF39
:102F900000010104010401FC00840104010001801E
:102FA0000000000000CC0124012401240124019828
:102FB000000000000100010007F801040104000006
:102FC0000000010001F8000400040004010801FCF5
:102FD0000004010001800170000C001001600180FC
:102FE000010001F0010C003001C00030010C01F0C3
:102FF000010000000104018C00740170018C0104C7
:103000000000010101810171000E001801600180C2
:10301000010000000184010C013401440184010C11
:103020000000000000000000000001003EFC400223
:1030300040020000000000000000FFFF0000000050
:1030400000000000400240023EFC010000000000C1
:103050000000000060008000800040004000200070
:103060002000000000000000000000000000000040
:103070000000000000000000000000000000000050
:103080000000000000000000000000000000000040
:1030900000000000000F80380FFE380F803800005D
:1030A0000000000000000000000000000000000020
:1030B0000100000600000C0000380000310000068E
:1030C00000000C000038000030000000000000008C
:1030D000000061800067F807F9800061800061806E
:1030E0000061800061800067F807F980006180005E
:1030F000000000000000000001C0E003E0F0063026
:10310000080418081FFFFE040E080787F00381E07B
:1031100000000000000001F000060C000404080696
:103120000C7001F9C0000E00003BE000EC1807082D
:1031300008040C180003E00000000001E00007F0A4
:1031400003F818041C0804170807E1D003C0E000C6
:1031500023B0003C08002008000010000000000020
:10316000000100003100003200001C0000000000DF
:10317000000000000000000000000000000000004F
:10318000000000000000000000000000000000003F
:1031900000007F0001FFC00780F00C001810000441
:1031A0002000020000000000002000021000040CBB
:1031B00000180780F001FFC0007F00000000000041
:1031C00000000000000000000000000000004200BD
:1031D000006600006600003C0000180003FFC0000D
:1031E0001800003C0000660000660000420000007D
:1031F00000000800000800000800000800000800A7
:1032000001FFC000080000080000080000080000DE
:103210000800000000000001000031000032000042
:103220001C00000000000000000000000000000082
:10323000000000000000000000000800000800007E
:10324000080000080000080000080000080000084E
:10325000000008000008000000000000000000005E
:1032600000003800003800003800000000000000B6
:10327000000000000000000000000000000000004E
:103280000000000600001C000070000180000E001D
:1032900000380000C0000700001C000030000000E3
:1032A0000000000000007F8001FFE0038070060046
:1032B0001804000804000806001803807001FFE0ED
:1032C000007F8000000000000000000001000801F5
:1032D000000801000803FFF807FFF80000080000DD
:1032E0000800000800000000000000000001C038D5
:1032F00002C05804009804011804021804041806B7
:103300001C1803F81801E0F800000000000000009D
:103310000001C0E003C0F004000804080804080825
:1033200006180803F41801E7F00001E000000000AF
:103330000000000000000300000D0000110000610B
:103340000000810803010807FFF80FFFF8000108DB
:103350000001080000000000000000E007FCD006AB
:103360000808061008061008061008061838060F88
:10337000F00607C0000000000000000000003F80D1
:1033800001FFE00384300208180410080410080448
:103390001008071810030FF00007C000000000001D
:1033A0000000000003C0000700000600000600F84F
:1033B0000607F806180006E00007000006000000F7
:1033C000000000000001E1E003F7F00634100418EB
:1033D00008041808040C08040C0806161803F3F077
:1033E00001C1E000000000000000F80003FC300311
:1033F0000638040208040208040208040410030842
:10340000F001FFC0007F000000000000000000008D
:10341000000000000000000000007038007038005C
:1034200070380000000000000000000000000000F4
:103430000000000000000000000000000000301A42
:1034400000301C0000000000000000000000000030
:10345000000000000000000000080000140000222E
:1034600000004100008080010040020020040010A4
:1034700008000800000000000000210000210000FA
:103480002100002100002100002100002100002176
:1034900000002100002100000000000000000000EA
:1034A0000800080400100200200100400080800095
:1034B000410000220000140000080000000000008D
:1034C0000003C00004C000040000080038080F38E2
:1034D0000808380810000C300007E00003C00000A6
:1034E0000000000000003F8000FFE0038070020F3A
:1034F0001006708804C088048308047F8802C09086
:1035000003012000FE400000080000180001F80040
:103510003E0801C20007020007E20000FE00001F93
:10352000C80001F800003800000804000807FFF890
:1035300007FFF80408080408080408080408080637
:10354000180803F41801E7F00001E0000000000093
:1035500000003F8001FFE0038070020018040008B3
:103560000400080400080400100600200780C000C2
:10357000000004000807FFF807FFF8040008040033
:103580000804000804001802001003807001FFE026
:10359000007F8000000004000807FFF807FFF80420
:1035A0000808040808040808040808043E08040081
:1035B0000806001801006000000004000807FFF87A
:1035C00007FFF804080804080004080004080004C1
:1035D0003E00060000060000018000000000000020
:1035E00000003F8001FFE00380700600180400081F
:1035F0000402080402080203F00783F0000200003E
:10360000020004000807FFF807FFF8040808000894
:103610000000080000080000080004080807FFF880
:1036200007FFF80400080000000000000400080480
:10363000000804000807FFF807FFF804000804006A
:103640000804000800000000000000000000000660
:10365000000007000001040001040001040003074A
:10366000FFFE07FFFC04000004000004000004004B
:103670000807FFF807FFF8040C08001800003E00D8
:1036800004C7800503C80600F804003804001800C9
:10369000000804000807FFF807FFF804000800000E
:1036A00008000008000008000008000008000018DA
:1036B00000006000000004000807FFF8078008070A
:1036C000FC00007FC00003F80007C00078000780FE
:1036D0000807FFF807FFF804000804000807FFF8D0
:1036E00007000803C00000E000003800001E0000D2
:1036F00007000001C00400F007FFF804000000000C
:1037000000007F8001FFE0038070060018040008BD
:1037100004000806001803003001FFE0007F80006D
:10372000000004000807FFF807FFF8040408040479
:1037300000040400040400040400060C0003F80064
:1037400001F000000000000000007F8001FFE003A6
:1037500080700600880400880400C806003C03004E
:103760003E01FFE6007F8400000004000807FFF828
:1037700007FFF8040808040800040C00040F000404
:103780000BC00610F003F03801E00800000800004C
:103790000001E0F803F0300630100418080418089F
:1037A000040C08040C080206180207F00781E00068
:1037B0000000018000060000040000040000040076
:1037C0000807FFF807FFF8040008040000040000E1
:1037D00006000001800004000007FFE007FFF0047E
:1037E00000180000080000080000080000080000A1
:1037F0000804001007FFE0040000040000060000B9
:1038000007E00007FE00041FE00001F80000380098
:1038100001E0043E0007C0000600000400000400B0
:103820000007E00007FFC0041FF80007C007F8000A
:1038300007FF80043FF80007C004F80007000004F9
:10384000000000000004000806001807C07805F119
:10385000C8003E00001F800463E80780F8060018D7
:1038600004000800000004000006000007800007B4
:10387000E008047C08001FF80007F800180804E0BE
:103880000807000006000004000000000001000816
:103890000600380400F80403E8040F08047C080557
:1038A000F00807C0080700180400600000000000CE
:1038B000000000000000000000000000003FFFFECC
:1038C000200002200002200002200002200002004E
:1038D000000000000000000008000007000000C019
:1038E000000038000006000001C000003000000E9B
:1038F0000000010000000000000000002000022085
:1039000000022000022000022000023FFFFE000013
:1039100000000000000000000000000000000000A7
:1039200000000008000010000030000020000030FF
:10393000000010000008000000000000000000006F
:103940000100000100000100000100000100000171
:103950000000010000010000010000010000010062
:103960000001000000000000000000200000200016
:103970000010000010000000000000000000000027
:103980000000000000000000000000F00019F80036
:103990001B18002208002608002408002410003FFD
:1039A000F8001FF8000008000018000000040000E4
:1039B00007FFF80FFFF0001818001008002008009B
:1039C0002008003018001FF0000FC00000000000A9
:1039D000000007C0001FF000183000200800200879
:1039E000002008003C08001C1000006000000000DF
:1039F00000000000000007C0001FF0003818002081
:103A00000800200800200804101007FFF80FFFF03E
:103A10000000100000000000000000000007C000CF
:103A20001FF0001230002218002208002208003285
:103A300008001E10000E2000000000000000200002
:103A400000200800200801FFF803FFF80620080402
:103A500020080420080720000300000000000000E8
:103A60000000000E000E6E001FF30031B10020B107
:103A70000020B1003191001F13002E1E00200E0007
:103A8000300000000004000807FFF80FFFF80010E6
:103A900008002000002000002008003FF8001FF868
:103AA00000000800000000000000000000200800E6
:103AB0002008002008063FF8063FF8000008000034
:103AC00008000008000000000000000000000000E6
:103AD0000000030000030020010020010020030675
:103AE0003FFE063FFC000000000000000000000058
:103AF0000004000807FFF80FFFF80001880003002A
:103B0000002FC00038F8002038002008000008000E
:103B10000000000000000000040008040008040089
:103B20000807FFF80FFFF800000800000800000871
:103B3000000000000000002008003FF8003FF800EF
:103B40001008002000003FF8003FF8001008002097
:103B500000003FF8003FF8000008000000002008C7
:103B6000003FF8003FF8001008001000002000009F
:103B70002008003FF8001FF80000080000000000C7
:103B8000000007C0000FF0001830003008002008C7
:103B9000002008003008001830000FF00007C000B7
:103BA0000000000000002001003FFF003FFF001068
:103BB00011002009002008002008003038001FF004
:103BC000000FC00000000000000007C0001FF00050
:103BD0003818002008002008002009001011001FDC
:103BE000FF003FFF00000100000000200800200847
:103BF000002008003FF8003FF80008080010080007
:103C0000200800200000300000300000000000000C
:103C100000000000000C78001E1800330800230884
:103C20000021080021880021980030F00038600051
:103C3000000000000000200000200000200000FF25
:103C4000F003FFF8002008002008002008000030E2
:103C5000000000000000000000002000003FF00015
:103C60007FF8000018000008000008002010003F46
:103C7000F8007FF0000010000000000000002000AD
:103C8000003000003C00003F800023F0000078007E
:103C90000070002380003C00003000002000002065
:103CA00000003C00003FE00023F80000E000270097
:103CB000003E00003FE00021F80001E0003E00006F
:103CC0002000000000002008002008003838003ED6
:103CD000680027800003C8002CF80038380020183E
:103CE0000020080000000000000020000030030059
:103CF0003C01003F830023EC000070002380003C67
:103D00000000200000200000000000000000000073
:103D10000038080020380020F80023E8002F880031
:103D20003E08003808002018000070000000000065
:103D3000000000000000000000000000000008007B
:103D40000014001FF7FC30000620000200000000F5
:103D50000000000000000000000000000000000063
:103D600000000000FFFFFF00000000000000000056
:103D700000000000000000000000000020000230F1
:103D800000061FF7FC0014000008000000000000FF
:103D9000000000000000000000000000001800000B
:103DA00060000040000040000020000010000008FB
:103DB00000000400000400000C000010000030317E
:103DC0003233343536373839414243444546403042
:103DD00058003031323334353637383961626364F4
:103DE0006566403078000000083E000800000020B2
:103DF00020000000C4010008283E00082000002028
:103E000038070000E0010008000000000102030480
:103E1000010203040607080900000000000000007A
:083E2000000000000000FFFF9C
:040000050800018965
:00000001FF
